{
    "contractName": "MedicineTracker",
    "abi": [
        {
            "inputs": [],
            "stateMutability": "nonpayable",
            "type": "constructor"
        },
        {
            "anonymous": false,
            "inputs": [
                {
                    "indexed": false,
                    "internalType": "string",
                    "name": "batchId",
                    "type": "string"
                },
                {
                    "indexed": false,
                    "internalType": "string",
                    "name": "name",
                    "type": "string"
                },
                {
                    "indexed": false,
                    "internalType": "string",
                    "name": "manufacturer",
                    "type": "string"
                },
                {
                    "indexed": false,
                    "internalType": "uint256",
                    "name": "manufacturingDate",
                    "type": "uint256"
                },
                {
                    "indexed": false,
                    "internalType": "uint256",
                    "name": "expiryDate",
                    "type": "uint256"
                }
            ],
            "name": "MedicineRegistered",
            "type": "event"
        },
        {
            "anonymous": false,
            "inputs": [
                {
                    "indexed": false,
                    "internalType": "string",
                    "name": "batchId",
                    "type": "string"
                },
                {
                    "indexed": true,
                    "internalType": "address",
                    "name": "entity",
                    "type": "address"
                },
                {
                    "indexed": false,
                    "internalType": "string",
                    "name": "status",
                    "type": "string"
                },
                {
                    "indexed": false,
                    "internalType": "uint256",
                    "name": "timestamp",
                    "type": "uint256"
                }
            ],
            "name": "SupplyChainUpdated",
            "type": "event"
        },
        {
            "inputs": [
                {
                    "internalType": "address",
                    "name": "",
                    "type": "address"
                }
            ],
            "name": "authorizedEntities",
            "outputs": [
                {
                    "internalType": "bool",
                    "name": "",
                    "type": "bool"
                }
            ],
            "stateMutability": "view",
            "type": "function"
        },
        {
            "inputs": [
                {
                    "internalType": "address",
                    "name": "",
                    "type": "address"
                }
            ],
            "name": "entityNames",
            "outputs": [
                {
                    "internalType": "string",
                    "name": "",
                    "type": "string"
                }
            ],
            "stateMutability": "view",
            "type": "function"
        },
        {
            "inputs": [
                {
                    "internalType": "string",
                    "name": "",
                    "type": "string"
                },
                {
                    "internalType": "uint256",
                    "name": "",
                    "type": "uint256"
                }
            ],
            "name": "journeyDetails",
            "outputs": [
                {
                    "internalType": "address",
                    "name": "entity",
                    "type": "address"
                },
                {
                    "internalType": "string",
                    "name": "status",
                    "type": "string"
                },
                {
                    "internalType": "uint256",
                    "name": "timestamp",
                    "type": "uint256"
                }
            ],
            "stateMutability": "view",
            "type": "function"
        },
        {
            "inputs": [
                {
                    "internalType": "string",
                    "name": "",
                    "type": "string"
                }
            ],
            "name": "medicines",
            "outputs": [
                {
                    "internalType": "string",
                    "name": "name",
                    "type": "string"
                },
                {
                    "internalType": "string",
                    "name": "batchId",
                    "type": "string"
                },
                {
                    "internalType": "string",
                    "name": "manufacturer",
                    "type": "string"
                },
                {
                    "internalType": "uint256",
                    "name": "manufacturingDate",
                    "type": "uint256"
                },
                {
                    "internalType": "uint256",
                    "name": "expiryDate",
                    "type": "uint256"
                }
            ],
            "stateMutability": "view",
            "type": "function"
        },
        {
            "inputs": [],
            "name": "owner",
            "outputs": [
                {
                    "internalType": "address",
                    "name": "",
                    "type": "address"
                }
            ],
            "stateMutability": "view",
            "type": "function"
        },
        {
            "inputs": [
                {
                    "internalType": "address",
                    "name": "_entity",
                    "type": "address"
                }
            ],
            "name": "addAuthorizedEntity",
            "outputs": [],
            "stateMutability": "nonpayable",
            "type": "function"
        },
        {
            "inputs": [
                {
                    "internalType": "address",
                    "name": "_entity",
                    "type": "address"
                }
            ],
            "name": "removeAuthorizedEntity",
            "outputs": [],
            "stateMutability": "nonpayable",
            "type": "function"
        },
        {
            "inputs": [
                {
                    "internalType": "address",
                    "name": "_entity",
                    "type": "address"
                },
                {
                    "internalType": "string",
                    "name": "_name",
                    "type": "string"
                }
            ],
            "name": "setEntityName",
            "outputs": [],
            "stateMutability": "nonpayable",
            "type": "function"
        },
        {
            "inputs": [
                {
                    "internalType": "string",
                    "name": "_batchId",
                    "type": "string"
                },
                {
                    "internalType": "string",
                    "name": "_name",
                    "type": "string"
                },
                {
                    "internalType": "string",
                    "name": "_manufacturer",
                    "type": "string"
                },
                {
                    "internalType": "uint256",
                    "name": "_manufacturingDate",
                    "type": "uint256"
                },
                {
                    "internalType": "uint256",
                    "name": "_expiryDate",
                    "type": "uint256"
                }
            ],
            "name": "registerMedicine",
            "outputs": [],
            "stateMutability": "nonpayable",
            "type": "function"
        },
        {
            "inputs": [
                {
                    "internalType": "string",
                    "name": "_batchId",
                    "type": "string"
                },
                {
                    "internalType": "string",
                    "name": "_status",
                    "type": "string"
                }
            ],
            "name": "updateSupplyChain",
            "outputs": [],
            "stateMutability": "nonpayable",
            "type": "function"
        },
        {
            "inputs": [
                {
                    "internalType": "string",
                    "name": "_batchId",
                    "type": "string"
                }
            ],
            "name": "getJourneyDetails",
            "outputs": [
                {
                    "components": [
                        {
                            "internalType": "address",
                            "name": "entity",
                            "type": "address"
                        },
                        {
                            "internalType": "string",
                            "name": "status",
                            "type": "string"
                        },
                        {
                            "internalType": "uint256",
                            "name": "timestamp",
                            "type": "uint256"
                        }
                    ],
                    "internalType": "struct MedicineTracker.JourneyStep[]",
                    "name": "",
                    "type": "tuple[]"
                }
            ],
            "stateMutability": "view",
            "type": "function"
        },
        {
            "inputs": [
                {
                    "internalType": "string",
                    "name": "_batchId",
                    "type": "string"
                }
            ],
            "name": "getMedicineDetails",
            "outputs": [
                {
                    "internalType": "string",
                    "name": "",
                    "type": "string"
                },
                {
                    "internalType": "string",
                    "name": "",
                    "type": "string"
                },
                {
                    "internalType": "string",
                    "name": "",
                    "type": "string"
                },
                {
                    "internalType": "uint256",
                    "name": "",
                    "type": "uint256"
                },
                {
                    "internalType": "uint256",
                    "name": "",
                    "type": "uint256"
                }
            ],
            "stateMutability": "view",
            "type": "function"
        }
    ],
    "bytecode": "0x608060405234801561000f575f80fd5b503360045f6101000a81548173ffffffffffffffffffffffffffffffffffffffff021916908373ffffffffffffffffffffffffffffffffffffffff160217905550600160035f3373ffffffffffffffffffffffffffffffffffffffff1673ffffffffffffffffffffffffffffffffffffffff1681526020019081526020015f205f6101000a81548160ff021916908315150217905550611d60806100b25f395ff3fe608060405234801561000f575f80fd5b50600436106100b2575f3560e01c80638da5cb5b1161006f5780638da5cb5b1461019e57806393c6ec23146101bc578063952133fc146101d85780639ce0214014610208578063adcd1dcd14610224578063b704358e14610258576100b2565b806321b9da99146100b657806331a9fd69146100ea57806333616eee146101065780633921b438146101365780633c5f1a39146101525780636580eb5614610182575b5f80fd5b6100d060048036038101906100cb91906111ba565b61028a565b6040516100e1959493929190611293565b60405180910390f35b61010460048036038101906100ff9190611323565b610465565b005b610120600480360381019061011b9190611448565b610632565b60405161012d919061148d565b60405180910390f35b610150600480360381019061014b91906114a6565b61064f565b005b61016c600480360381019061016791906111ba565b61087c565b604051610179919061168a565b60405180910390f35b61019c60048036038101906101979190611448565b6109e4565b005b6101a6610acb565b6040516101b391906116b9565b60405180910390f35b6101d660048036038101906101d191906116d2565b610af0565b005b6101f260048036038101906101ed9190611448565b610bce565b6040516101ff919061172c565b60405180910390f35b610222600480360381019061021d9190611448565b610c69565b005b61023e600480360381019061023991906111ba565b610d4f565b60405161024f959493929190611293565b60405180910390f35b610272600480360381019061026d919061174c565b610f70565b604051610281939291906117a6565b60405180910390f35b5f818051602081018201805184825260208301602085012081835280955050505050505f91509050805f0180546102c09061180f565b80601f01602080910402602001604051908101604052809291908181526020018280546102ec9061180f565b80156103375780601f1061030e57610100808354040283529160200191610337565b820191905f5260205f20905b81548152906001019060200180831161031a57829003601f168201915b50505050509080600101805461034c9061180f565b80601f01602080910402602001604051908101604052809291908181526020018280546103789061180f565b80156103c35780601f1061039a576101008083540402835291602001916103c3565b820191905f5260205f20905b8154815290600101906020018083116103a657829003601f168201915b5050505050908060020180546103d89061180f565b80601f01602080910402602001604051908101604052809291908181526020018280546104049061180f565b801561044f5780601f106104265761010080835404028352916020019161044f565b820191905f5260205f20905b81548152906001019060200180831161043257829003601f168201915b5050505050908060030154908060040154905085565b60035f3373ffffffffffffffffffffffffffffffffffffffff1673ffffffffffffffffffffffffffffffffffffffff1681526020019081526020015f205f9054906101000a900460ff166104ee576040517f08c379a00000000000000000000000000000000000000000000000000000000081526004016104e5906118af565b60405180910390fd5b5f6001866040516104ff9190611907565b90815260200160405180910390208054905014610551576040517f08c379a000000000000000000000000000000000000000000000000000000000815260040161054890611967565b60405180910390fd5b6040518060a00160405280858152602001868152602001848152602001838152602001828152505f866040516105879190611907565b90815260200160405180910390205f820151815f0190816105a89190611b22565b5060208201518160010190816105be9190611b22565b5060408201518160020190816105d49190611b22565b5060608201518160030155608082015181600401559050507fa8a21bc87314a1d38583e33fb23b07994f96dfe835223a9ba1d62eb5c1a309f08585858585604051610623959493929190611293565b60405180910390a15050505050565b6003602052805f5260405f205f915054906101000a900460ff1681565b60035f3373ffffffffffffffffffffffffffffffffffffffff1673ffffffffffffffffffffffffffffffffffffffff1681526020019081526020015f205f9054906101000a900460ff166106d8576040517f08c379a00000000000000000000000000000000000000000000000000000000081526004016106cf906118af565b60405180910390fd5b5f80836040516106e89190611907565b908152602001604051809103902060010180546107049061180f565b905011610746576040517f08c379a000000000000000000000000000000000000000000000000000000000815260040161073d90611c3b565b60405180910390fd5b5f60405180606001604052803373ffffffffffffffffffffffffffffffffffffffff16815260200183815260200142815250905060018360405161078a9190611907565b908152602001604051809103902081908060018154018082558091505060019003905f5260205f2090600302015f909190919091505f820151815f015f6101000a81548173ffffffffffffffffffffffffffffffffffffffff021916908373ffffffffffffffffffffffffffffffffffffffff16021790555060208201518160010190816108189190611b22565b506040820151816002015550503373ffffffffffffffffffffffffffffffffffffffff167fc6520a7e5db91b82b1ff81900e1677f38e4dba9fd17446f13f81d50221255a8884844260405161086f93929190611c59565b60405180910390a2505050565b606060018260405161088e9190611907565b9081526020016040518091039020805480602002602001604051908101604052809291908181526020015f905b828210156109d9578382905f5260205f2090600302016040518060600160405290815f82015f9054906101000a900473ffffffffffffffffffffffffffffffffffffffff1673ffffffffffffffffffffffffffffffffffffffff1673ffffffffffffffffffffffffffffffffffffffff1681526020016001820180546109409061180f565b80601f016020809104026020016040519081016040528092919081815260200182805461096c9061180f565b80156109b75780601f1061098e576101008083540402835291602001916109b7565b820191905f5260205f20905b81548152906001019060200180831161099a57829003601f168201915b50505050508152602001600282015481525050815260200190600101906108bb565b505050509050919050565b60045f9054906101000a900473ffffffffffffffffffffffffffffffffffffffff1673ffffffffffffffffffffffffffffffffffffffff163373ffffffffffffffffffffffffffffffffffffffff1614610a73576040517f08c379a0000000000000000000000000000000000000000000000000000000008152600401610a6a90611d0c565b60405180910390fd5b600160035f8373ffffffffffffffffffffffffffffffffffffffff1673ffffffffffffffffffffffffffffffffffffffff1681526020019081526020015f205f6101000a81548160ff02191690831515021790555050565b60045f9054906101000a900473ffffffffffffffffffffffffffffffffffffffff1681565b60045f9054906101000a900473ffffffffffffffffffffffffffffffffffffffff1673ffffffffffffffffffffffffffffffffffffffff163373ffffffffffffffffffffffffffffffffffffffff1614610b7f576040517f08c379a0000000000000000000000000000000000000000000000000000000008152600401610b7690611d0c565b60405180910390fd5b8060025f8473ffffffffffffffffffffffffffffffffffffffff1673ffffffffffffffffffffffffffffffffffffffff1681526020019081526020015f209081610bc99190611b22565b505050565b6002602052805f5260405f205f915090508054610bea9061180f565b80601f0160208091040260200160405190810160405280929190818152602001828054610c169061180f565b8015610c615780601f10610c3857610100808354040283529160200191610c61565b820191905f5260205f20905b815481529060010190602001808311610c4457829003601f168201915b505050505081565b60045f9054906101000a900473ffffffffffffffffffffffffffffffffffffffff1673ffffffffffffffffffffffffffffffffffffffff163373ffffffffffffffffffffffffffffffffffffffff1614610cf8576040517f08c379a0000000000000000000000000000000000000000000000000000000008152600401610cef90611d0c565b60405180910390fd5b5f60035f8373ffffffffffffffffffffffffffffffffffffffff1673ffffffffffffffffffffffffffffffffffffffff1681526020019081526020015f205f6101000a81548160ff02191690831515021790555050565b60608060605f805f8087604051610d669190611907565b90815260200160405180910390206040518060a00160405290815f82018054610d8e9061180f565b80601f0160208091040260200160405190810160405280929190818152602001828054610dba9061180f565b8015610e055780601f10610ddc57610100808354040283529160200191610e05565b820191905f5260205f20905b815481529060010190602001808311610de857829003601f168201915b50505050508152602001600182018054610e1e9061180f565b80601f0160208091040260200160405190810160405280929190818152602001828054610e4a9061180f565b8015610e955780601f10610e6c57610100808354040283529160200191610e95565b820191905f5260205f20905b815481529060010190602001808311610e7857829003601f168201915b50505050508152602001600282018054610eae9061180f565b80601f0160208091040260200160405190810160405280929190818152602001828054610eda9061180f565b8015610f255780601f10610efc57610100808354040283529160200191610f25565b820191905f5260205f20905b815481529060010190602001808311610f0857829003601f168201915b50505050508152602001600382015481526020016004820154815250509050805f01518160200151826040015183606001518460800151955095509550955095505091939590929450565b6001828051602081018201805184825260208301602085012081835280955050505050508181548110610fa1575f80fd5b905f5260205f2090600302015f9150915050805f015f9054906101000a900473ffffffffffffffffffffffffffffffffffffffff1690806001018054610fe69061180f565b80601f01602080910402602001604051908101604052809291908181526020018280546110129061180f565b801561105d5780601f106110345761010080835404028352916020019161105d565b820191905f5260205f20905b81548152906001019060200180831161104057829003601f168201915b5050505050908060020154905083565b5f604051905090565b5f80fd5b5f80fd5b5f80fd5b5f80fd5b5f601f19601f8301169050919050565b7f4e487b71000000000000000000000000000000000000000000000000000000005f52604160045260245ffd5b6110cc82611086565b810181811067ffffffffffffffff821117156110eb576110ea611096565b5b80604052505050565b5f6110fd61106d565b905061110982826110c3565b919050565b5f67ffffffffffffffff82111561112857611127611096565b5b61113182611086565b9050602081019050919050565b828183375f83830152505050565b5f61115e6111598461110e565b6110f4565b90508281526020810184848401111561117a57611179611082565b5b61118584828561113e565b509392505050565b5f82601f8301126111a1576111a061107e565b5b81356111b184826020860161114c565b91505092915050565b5f602082840312156111cf576111ce611076565b5b5f82013567ffffffffffffffff8111156111ec576111eb61107a565b5b6111f88482850161118d565b91505092915050565b5f81519050919050565b5f82825260208201905092915050565b5f5b8381101561123857808201518184015260208101905061121d565b5f8484015250505050565b5f61124d82611201565b611257818561120b565b935061126781856020860161121b565b61127081611086565b840191505092915050565b5f819050919050565b61128d8161127b565b82525050565b5f60a0820190508181035f8301526112ab8188611243565b905081810360208301526112bf8187611243565b905081810360408301526112d38186611243565b90506112e26060830185611284565b6112ef6080830184611284565b9695505050505050565b6113028161127b565b811461130c575f80fd5b50565b5f8135905061131d816112f9565b92915050565b5f805f805f60a0868803121561133c5761133b611076565b5b5f86013567ffffffffffffffff8111156113595761135861107a565b5b6113658882890161118d565b955050602086013567ffffffffffffffff8111156113865761138561107a565b5b6113928882890161118d565b945050604086013567ffffffffffffffff8111156113b3576113b261107a565b5b6113bf8882890161118d565b93505060606113d08882890161130f565b92505060806113e18882890161130f565b9150509295509295909350565b5f73ffffffffffffffffffffffffffffffffffffffff82169050919050565b5f611417826113ee565b9050919050565b6114278161140d565b8114611431575f80fd5b50565b5f813590506114428161141e565b92915050565b5f6020828403121561145d5761145c611076565b5b5f61146a84828501611434565b91505092915050565b5f8115159050919050565b61148781611473565b82525050565b5f6020820190506114a05f83018461147e565b92915050565b5f80604083850312156114bc576114bb611076565b5b5f83013567ffffffffffffffff8111156114d9576114d861107a565b5b6114e58582860161118d565b925050602083013567ffffffffffffffff8111156115065761150561107a565b5b6115128582860161118d565b9150509250929050565b5f81519050919050565b5f82825260208201905092915050565b5f819050602082019050919050565b61154e8161140d565b82525050565b5f82825260208201905092915050565b5f61156e82611201565b6115788185611554565b935061158881856020860161121b565b61159181611086565b840191505092915050565b6115a58161127b565b82525050565b5f606083015f8301516115c05f860182611545565b50602083015184820360208601526115d88282611564565b91505060408301516115ed604086018261159c565b508091505092915050565b5f61160383836115ab565b905092915050565b5f602082019050919050565b5f6116218261151c565b61162b8185611526565b93508360208202850161163d85611536565b805f5b85811015611678578484038952815161165985826115f8565b94506116648361160b565b925060208a01995050600181019050611640565b50829750879550505050505092915050565b5f6020820190508181035f8301526116a28184611617565b905092915050565b6116b38161140d565b82525050565b5f6020820190506116cc5f8301846116aa565b92915050565b5f80604083850312156116e8576116e7611076565b5b5f6116f585828601611434565b925050602083013567ffffffffffffffff8111156117165761171561107a565b5b6117228582860161118d565b9150509250929050565b5f6020820190508181035f8301526117448184611243565b905092915050565b5f806040838503121561176257611761611076565b5b5f83013567ffffffffffffffff81111561177f5761177e61107a565b5b61178b8582860161118d565b925050602061179c8582860161130f565b9150509250929050565b5f6060820190506117b95f8301866116aa565b81810360208301526117cb8185611243565b90506117da6040830184611284565b949350505050565b7f4e487b71000000000000000000000000000000000000000000000000000000005f52602260045260245ffd5b5f600282049050600182168061182657607f821691505b602082108103611839576118386117e2565b5b50919050565b7f4f6e6c7920617574686f72697a656420656e7469746965732063616e207065725f8201527f666f726d207468697320616374696f6e00000000000000000000000000000000602082015250565b5f61189960308361120b565b91506118a48261183f565b604082019050919050565b5f6020820190508181035f8301526118c68161188d565b9050919050565b5f81905092915050565b5f6118e182611201565b6118eb81856118cd565b93506118fb81856020860161121b565b80840191505092915050565b5f61191282846118d7565b915081905092915050565b7f4d65646963696e6520616c7265616479207265676973746572656400000000005f82015250565b5f611951601b8361120b565b915061195c8261191d565b602082019050919050565b5f6020820190508181035f83015261197e81611945565b9050919050565b5f819050815f5260205f209050919050565b5f6020601f8301049050919050565b5f82821b905092915050565b5f600883026119e17fffffffffffffffffffffffffffffffffffffffffffffffffffffffffffffffff826119a6565b6119eb86836119a6565b95508019841693508086168417925050509392505050565b5f819050919050565b5f611a26611a21611a1c8461127b565b611a03565b61127b565b9050919050565b5f819050919050565b611a3f83611a0c565b611a53611a4b82611a2d565b8484546119b2565b825550505050565b5f90565b611a67611a5b565b611a72818484611a36565b505050565b5b81811015611a9557611a8a5f82611a5f565b600181019050611a78565b5050565b601f821115611ada57611aab81611985565b611ab484611997565b81016020851015611ac3578190505b611ad7611acf85611997565b830182611a77565b50505b505050565b5f82821c905092915050565b5f611afa5f1984600802611adf565b1980831691505092915050565b5f611b128383611aeb565b9150826002028217905092915050565b611b2b82611201565b67ffffffffffffffff811115611b4457611b43611096565b5b611b4e825461180f565b611b59828285611a99565b5f60209050601f831160018114611b8a575f8415611b78578287015190505b611b828582611b07565b865550611be9565b601f198416611b9886611985565b5f5b82811015611bbf57848901518255600182019150602085019450602081019050611b9a565b86831015611bdc5784890151611bd8601f891682611aeb565b8355505b6001600288020188555050505b505050505050565b7f4d65646963696e65206e6f7420726567697374657265640000000000000000005f82015250565b5f611c2560178361120b565b9150611c3082611bf1565b602082019050919050565b5f6020820190508181035f830152611c5281611c19565b9050919050565b5f6060820190508181035f830152611c718186611243565b90508181036020830152611c858185611243565b9050611c946040830184611284565b949350505050565b7f4f6e6c7920746865206f776e65722063616e20706572666f726d2074686973205f8201527f616374696f6e0000000000000000000000000000000000000000000000000000602082015250565b5f611cf660268361120b565b9150611d0182611c9c565b604082019050919050565b5f6020820190508181035f830152611d2381611cea565b905091905056fea2646970667358221220f208a5896b4be3d21821bcd0da317521a044dda706af90334b8d3e0ddbfc524364736f6c63430008150033",
    "immutableReferences": {},
    "source": "// SPDX-License-Identifier: MIT\npragma solidity ^0.8.0;\n\ncontract MedicineTracker {\n    struct Medicine {\n        string name;\n        string batchId;\n        string manufacturer;\n        uint256 manufacturingDate;\n        uint256 expiryDate;\n    }\n\n    struct JourneyStep {\n        address entity;       // Address of the entity\n        string status;        // Status (e.g., \"Dispatched\", \"Received\")\n        uint256 timestamp;    // Time of the update\n    }\n\n    mapping(string => Medicine) public medicines; // Mapping to store medicines by their batch ID\n    mapping(string => JourneyStep[]) public journeyDetails; // Mapping for the journey of each medicine\n    mapping(address => string) public entityNames; // Mapping to store entity names by address\n    mapping(address => bool) public authorizedEntities; // Mapping to store authorized entities\n\n    address public owner;\n\n    // Events\n    event MedicineRegistered(\n        string batchId,\n        string name,\n        string manufacturer,\n        uint256 manufacturingDate,\n        uint256 expiryDate\n    );\n\n    event SupplyChainUpdated(\n        string batchId,\n        address indexed entity,\n        string status,\n        uint256 timestamp\n    );\n\n    modifier onlyOwner() {\n        require(msg.sender == owner, \"Only the owner can perform this action\");\n        _;\n    }\n\n    modifier onlyAuthorized() {\n        require(\n            authorizedEntities[msg.sender],\n            \"Only authorized entities can perform this action\"\n        );\n        _;\n    }\n\n    constructor() {\n        owner = msg.sender; // Set the deployer as the owner\n        authorizedEntities[msg.sender] = true; // The owner is an authorized entity by default\n    }\n\n    // Function to add authorized entities\n    function addAuthorizedEntity(address _entity) public onlyOwner {\n        authorizedEntities[_entity] = true;\n    }\n\n    // Function to remove authorized entities\n    function removeAuthorizedEntity(address _entity) public onlyOwner {\n        authorizedEntities[_entity] = false;\n    }\n\n    // Function to register an entity name\n    function setEntityName(address _entity, string memory _name)\n        public\n        onlyOwner\n    {\n        entityNames[_entity] = _name;\n    }\n\n    // Function to register a new medicine\n    function registerMedicine(\n        string memory _batchId,\n        string memory _name,\n        string memory _manufacturer,\n        uint256 _manufacturingDate,\n        uint256 _expiryDate\n    ) public onlyAuthorized {\n        // Ensure the medicine is not already registered\n        require(\n            journeyDetails[_batchId].length == 0,\n            \"Medicine already registered\"\n        );\n\n        medicines[_batchId] = Medicine({\n            name: _name,\n            batchId: _batchId,\n            manufacturer: _manufacturer,\n            manufacturingDate: _manufacturingDate,\n            expiryDate: _expiryDate\n        });\n\n        emit MedicineRegistered(\n            _batchId,\n            _name,\n            _manufacturer,\n            _manufacturingDate,\n            _expiryDate\n        );\n    }\n\n    // Function to update the supply chain\n    function updateSupplyChain(string memory _batchId, string memory _status)\n        public\n        onlyAuthorized\n    {\n        require(\n            bytes(medicines[_batchId].batchId).length > 0,\n            \"Medicine not registered\"\n        );\n\n        JourneyStep memory step = JourneyStep({\n            entity: msg.sender,\n            status: _status,\n            timestamp: block.timestamp\n        });\n\n        journeyDetails[_batchId].push(step);\n\n        emit SupplyChainUpdated(\n            _batchId,\n            msg.sender,\n            _status,\n            block.timestamp\n        );\n    }\n\n    // Function to get the journey details for a medicine\n    function getJourneyDetails(string memory _batchId)\n        public\n        view\n        returns (JourneyStep[] memory)\n    {\n        return journeyDetails[_batchId];\n    }\n\n    // Function to get medicine details\n    function getMedicineDetails(string memory _batchId)\n        public\n        view\n        returns (\n            string memory,\n            string memory,\n            string memory,\n            uint256,\n            uint256\n        )\n    {\n        Medicine memory med = medicines[_batchId];\n        return (\n            med.name,\n            med.batchId,\n            med.manufacturer,\n            med.manufacturingDate,\n            med.expiryDate\n        );\n    }\n}\n",
    "sourcePath": "/Users/ananyamangal/Desktop/SIH project/contracts/MedicineTracker.sol",
    "compiler": {
        "name": "solc",
        "version": "0.8.21+commit.d9974bed.Emscripten.clang"
    },
    "schemaVersion": "3.4.16",
    "updatedAt": "2024-12-02T17:34:22.941Z",
    "devdoc": {
        "kind": "dev",
        "methods": {},
        "version": 1
    },
    "userdoc": {
        "kind": "user",
        "methods": {},
        "version": 1
    }
}